{
  "transactions": [
    {
      "hash": "0x9fe47358fd366a99e5259126df8bff2d3056f26733385e3427fc6a7ffb0c7600",
      "transactionType": "CALL",
      "contractName": null,
      "contractAddress": "0x96ad2d8233c7713cd378388cf5f594a218ea64c8",
      "function": "updateOdds(uint256)",
      "arguments": [
        "4000"
      ],
      "transaction": {
        "from": "0x467a255435b3f6e75797dbe301763ccc4394e194",
        "to": "0x96ad2d8233c7713cd378388cf5f594a218ea64c8",
        "gas": "0xe45e",
        "value": "0x0",
        "input": "0xeb50f6bc0000000000000000000000000000000000000000000000000000000000000fa0",
        "nonce": "0x2f",
        "chainId": "0x2e2c"
      },
      "additionalContracts": [],
      "isFixedGasLimit": false
    }
  ],
  "receipts": [
    {
      "status": "0x1",
      "cumulativeGasUsed": "0xa556",
      "logs": [
        {
          "address": "0x96ad2d8233c7713cd378388cf5f594a218ea64c8",
          "topics": [
            "0x401f5799446884f85b1967999c05db7393e8ce1fd302dc57ad43d6c1fafe9e29"
          ],
          "data": "0x0000000000000000000000000000000000000000000000000000000000000fa00000000000000000000000000000000000000000000000000000000000001770",
          "blockHash": "0xaef5731e370e620770cc232562426c7ad09a23446d6a149697530d751f8d97f3",
          "blockNumber": "0x5319",
          "transactionHash": "0x9fe47358fd366a99e5259126df8bff2d3056f26733385e3427fc6a7ffb0c7600",
          "transactionIndex": "0x0",
          "logIndex": "0x0",
          "removed": false
        }
      ],
      "logsBloom": "0x00000000000000000000000000000000000000000000000000000000000000000000000000000000000000002000000000000000000000000000000000000000000000000000000010000000000000000000000000000000000000000000000000000000000000000000000000000000000000000000000000000000000010000000000000000000000000000000000000008000000000000001000000000000000800000000000000000000000000000000000000000000000000000000000000000000000000000000000000000000000000000000000000000000000000000000000000000000000000000000000000000000000000000000000000000000",
      "type": "0x2",
      "transactionHash": "0x9fe47358fd366a99e5259126df8bff2d3056f26733385e3427fc6a7ffb0c7600",
      "transactionIndex": "0x0",
      "blockHash": "0xaef5731e370e620770cc232562426c7ad09a23446d6a149697530d751f8d97f3",
      "blockNumber": "0x5319",
      "gasUsed": "0xe45e",
      "effectiveGasPrice": "0x4a817c801",
      "from": "0x467a255435b3f6e75797dbe301763ccc4394e194",
      "to": "0x96ad2d8233c7713cd378388cf5f594a218ea64c8",
      "contractAddress": null
    }
  ],
  "libraries": [],
  "pending": [],
  "returns": {},
  "timestamp": 1730590321,
  "chain": 11820,
  "commit": "122d67a"
}